:020000040000FA
:100000000C945E000C9486000C9486000C94860080
:100010000C9486000C9486000C9486000C94860048
:100020000C9486000C9486000C9486000C94860038
:100030000C9486000C9486000C9486000C94860028
:100040000C9438010C9486000C9486000C94860065
:100050000C9486000C9486000C9486000C94860008
:100060000C9486000C9486000000000024002700F9
:100070002A0000000000250028002B0004040404CE
:100080000404040402020202020203030303030342
:10009000010204081020408001020408102001021F
:1000A00004081020000000080002010000030407FB
:1000B00000000000000000006E03CD0311241FBEED
:1000C000CFEFD8E0DEBFCDBF21E0A6E0B1E001C0B8
:1000D0001D92A932B207E1F711E0A0E0B1E0E6E934
:1000E000FCE002C005900D92A630B107D9F710E0F0
:1000F000CDE5D0E004C02197FE010E940C05CC356F
:10010000D107C9F70E9482010C943E060C940000AE
:1001100090E0FC01EC55FF4F2491FC01E057FF4FAC
:100120003491FC01E458FF4FE491EE23B9F022230F
:1001300039F02330F1F098F4213009F1223019F12F
:10014000F0E0EE0FFF1FEE58FF4FA591B4918FB76F
:10015000F894EC9130953E233C938FBF089527305F
:10016000A9F02830C9F0243059F7809180008F7DA4
:1001700003C0809180008F7780938000E1CF84B5A9
:100180008F7784BDDDCF84B58F7DFBCF8091B000AC
:100190008F778093B000D4CF8091B0008F7DF9CF5E
:1001A000CF93DF9390E0FC01E057FF4F24918458F8
:1001B0009F4FFC0184918823D1F090E0880F991F14
:1001C000FC01E859FF4FA591B491FC01EE58FF4F97
:1001D000C591D49161110EC09FB7F8948C91E22F14
:1001E000E0958E238C932881E223E8839FBFDF91E3
:1001F000CF9108958FB7F894EC91E22BEC938FBFD9
:10020000F6CF8E50806480937C0080917A00806469
:1002100080937A0080917A0086FDFCCF80917800EF
:100220009091790008953FB7F894809121019091C1
:100230002201A0912301B091240126B5A89B05C0FD
:100240002F3F19F00196A11DB11D3FBFBA2FA92F55
:10025000982F8827BC01CD01620F711D811D911D52
:1002600042E0660F771F881F991F4A95D1F70895BE
:100270001F920F920FB60F9211242F933F938F93DB
:100280009F93AF93BF9380911D0190911E01A09108
:100290001F01B091200130911C0123E0230F2D3765
:1002A00058F50196A11DB11D20931C0180931D01DD
:1002B00090931E01A0931F01B09320018091210112
:1002C00090912201A0912301B09124010196A11DDA
:1002D000B11D8093210190932201A0932301B0933B
:1002E0002401BF91AF919F918F913F912F910F90DA
:1002F0000FBE0F901F90189526E8230F0296A11DA0
:10030000B11DD2CFCF93DF93CDB7DEB729970FB60C
:10031000F894DEBF0FBECDBF789484B5826084BDF3
:1003200084B5816084BD85B5826085BD85B58160F9
:1003300085BD80916E00816080936E001092810077
:100340008091810082608093810080918100816032
:1003500080938100809180008160809380008091F3
:10036000B10084608093B1008091B000816080937F
:10037000B00080917A00846080937A0080917A0046
:10038000826080937A0080917A00816080937A0005
:1003900080917A00806880937A001092C1008091E9
:1003A0000C0190910D0197FD07C061E00E94D00003
:1003B00080910C010E94880081E08093070108E091
:1003C000202E40910A0150910B0170E060E0809175
:1003D0000F01909110010E94370683E10E940101F4
:1003E0006C0182E10E9401018C0181E10E94010106
:1003F0007C01B601DD0C880B990B0E94800427ED6F
:1004000033EA40E850E40E94DD030E944F04462E88
:10041000512C712C612C320155244424B701FF0C5E
:10042000880B990B0E94800427ED33EA40E850E4E2
:100430000E94DD030E944F04562AB801110F880B59
:10044000990B0E94800427ED33EA40E850E40E94B3
:10045000DD030E944F04D301C201862B6D01EE24FF
:10046000FF243C2C092F182FF12CE12C809108013E
:1004700090910901E816F906B8F580910E019801EE
:10048000632D882371F08C9D90018D9D300D11247A
:10049000632F809F90011124232F819FC00111247D
:1004A000392FE091140180910F019091100140913A
:1004B0001101E413CFC0A701440F551F4E0D5F1D5E
:1004C000840F951FE0911101E80FF92FF11D608352
:1004D000E0911201E80FF92FF11D20832091130103
:1004E000820F911DFC01308380910F0190911001CA
:1004F000892B09F47BC00E94130140901501509094
:100500001601609017017090180164157505860535
:10051000970540F4609315017093160180931701BD
:1005200090931801409015015090160160901701AA
:100530007090180164197509860997096C32714029
:1005400081059105C0F2F89480910A0190910B0108
:100550009A838983E0910F01F0911001DF011196D8
:100560008081898790910601E0911901F0911A012B
:1005700080911B01992309F479C09081982B988769
:100580009081809589238F838F818C832B825885DE
:100590006F8149853B812C8189819A81508347FDF8
:1005A000252F3A952083262F39F0441F00C00000E4
:1005B0006083000000C0F2CF38E04D9160830000FE
:1005C000019761F7F0931A01E093190149873B8382
:1005D0002C839A83898378940E9413016093150178
:1005E0007093160180931701909318010E941301D4
:1005F0004B015C0184E1482E512C612C712C0E942E
:100600001301681979098A099B09683E73408105BD
:100610009105A8F321E0421A51086108710888EE9B
:10062000880E83E0981EA11CB11C41145104610482
:10063000710429F7FFEFEF1AFF0A20E2E216F10436
:1006400009F014CF80E090E0892B09F4BACE0E9423
:100650000000B7CEA701440F551F440F551F840F4C
:10066000951FE80FF92FF11D10822CCF9081982B48
:1006700098879081809589238F838F818E832D82A7
:1006800058856F8149853D812E8189819A8150836A
:1006900047FD252F00C000C0208300C000C000C05F
:1006A00000C000C060830000262F3A9541F0441F2F
:1006B000000000C000C000C000C000C0E8CF38E0AB
:1006C0004D9100C0608300C0019709F7F0931A01B3
:1006D000E093190149873D832E837BCF1092070158
:1006E00010920E011092150110921601109217012E
:1006F0001092180181E080931401809311011092EF
:10070000120192E0909313018093060180E690E03D
:1007100090930B0180930A010E941205909310019F
:1007200080930F01009781F120E6FC0111922A9538
:10073000E9F780E290E0909309018093080182E05C
:1007400090E090930D0180930C0180910701882324
:1007500039F061E082E00E94D00082E00E948800CF
:10076000EEE7F0E0E491F0E0EE0FFF1FEE58FF4FF0
:100770008591949190931A0180931901E2E9F0E038
:10078000E491E0931B01089510920B0110920A016D
:100790001092090110920801D2CF80910F0190911F
:1007A00010010E94AE0580910C0190910D0197FD02
:1007B00003C060E00C94D00008950E94F1030C94F3
:1007C000D2040E94CB0458F00E94C40440F029F4E3
:1007D0005F3F29F00C94BB0451110C9406050C9456
:1007E000C1040E94E30468F39923B1F3552391F304
:1007F000951B550BBB27AA2762177307840738F090
:100800009F5F5F4F220F331F441FAA1FA9F335D0EC
:100810000E2E3AF0E0E832D091505040E695001CA0
:10082000CAF72BD0FE2F29D0660F771F881FBB1F5A
:10083000261737074807AB07B0E809F0BB0B802D38
:10084000BF01FF2793585F4F3AF09E3F510578F064
:100850000C94BB040C9406055F3FE4F3983ED4F37C
:10086000869577956795B795F7959F5FC9F7880F38
:10087000911D9695879597F90895E1E0660F771F8A
:10088000881FBB1F621773078407BA0720F0621B1B
:10089000730B840BBA0BEE1F88F7E09508950E9446
:1008A000EB0488F09F5798F0B92F9927B751B0F013
:1008B000E1F0660F771F881F991F1AF0BA95C9F7E4
:1008C00014C0B13091F00E940505B1E008950C9478
:1008D0000505672F782F8827B85F39F0B93FCCF32B
:1008E000869577956795B395D9F73EF49095809561
:1008F000709561957F4F8F4F9F4F0895E89409C081
:1009000097FB3EF490958095709561957F4F8F4F42
:100910009F4F9923A9F0F92F96E9BB279395F69558
:10092000879577956795B795F111F8CFFAF4BB0FD6
:1009300011F460FF1BC06F5F7F4F8F4F9F4F16C03A
:10094000882311F096E911C0772321F09EE8872FC4
:10095000762F05C0662371F096E8862F70E060E080
:100960002AF09A95660F771F881FDAF7880F9695F9
:10097000879597F9089597F99F6780E870E060E0A0
:1009800008959FEF80EC089500240A941616170628
:1009900018060906089500240A9412161306140670
:1009A00005060895092E0394000C11F4882352F0D3
:1009B000BB0F40F4BF2B11F460FF04C06F5F7F4F8B
:1009C0008F4F9F4F089557FD9058440F551F59F072
:1009D0005F3F71F04795880F97FB991F61F09F3F2C
:1009E00079F087950895121613061406551FF2CF55
:1009F0004695F1DF08C0161617061806991FF1CFA5
:100A000086957105610508940895E894BB276627CB
:100A10007727CB0197F90895EE0FFF1F0590F4910A
:100A2000E02D09940F931F93CF93DF9382309105AC
:100A300010F482E090E0E0912701F091280130E08D
:100A400020E0B0E0A0E0309799F42115310509F4D9
:100A50004AC0281B390B24303105D8F58A819B8187
:100A60006115710589F1FB0193838283FE0111C039
:100A7000408151810281138148175907E0F04817DE
:100A8000590799F4109761F012960C9312971396E8
:100A90001C933296CF01DF91CF911F910F91089552
:100AA0000093270110932801F4CF2115310551F04F
:100AB0004217530738F0A901DB019A01BD01DF019C
:100AC000F801C1CFEF01F9CF90932801809327015E
:100AD000CDCFFE01E20FF31F819391932250310994
:100AE00039832883D7CF2091250130912601232BEC
:100AF00041F42091020130910301309326012093AB
:100B0000250120910001309101012115310541F4A9
:100B10002DB73EB74091040150910501241B350BC0
:100B2000E0912501F0912601E217F307A0F42E1BB6
:100B30003F0B2817390778F0AC014E5F5F4F241741
:100B4000350748F04E0F5F1F509326014093250153
:100B5000819391939FCFF0E0E0E09CCFCF93DF9320
:100B60000097E9F0FC01329713821282A0912701CD
:100B7000B0912801ED0130E020E01097A1F4208130
:100B80003181820F931F2091250130912601281772
:100B9000390709F061C0F0932601E0932501DF9148
:100BA000CF910895EA01CE17DF07E8F54A815B810E
:100BB0009E0141155105B1F7E901FB83EA83499193
:100BC0005991C40FD51FEC17FD0761F48081918105
:100BD0000296840F951FE90199838883828193810E
:100BE0009B838A83F0E0E0E012968D919C911397AD
:100BF0000097B9F52D913C911197CD010296820F86
:100C0000931F20912501309126012817390739F6C5
:100C1000309751F51092280110922701B0932601C8
:100C2000A0932501BCCFD383C28340815181840F1F
:100C3000951FC817D90761F44E5F5F4F888199816E
:100C4000480F591F518340838A819B8193838283FC
:100C50002115310509F0B0CFF0932801E093270169
:100C60009ECFFD01DC01C0CF13821282D7CFDC0101
:100C700001C06D9341505040E0F7089510E0CDE57C
:100C8000D0E004C0FE010E940C052196CE35D107AC
:0C0C9000C9F7F894FFCF00002901800094
:107E0000112484B714BE81FFF0D085E080938100F7
:107E100082E08093C00088E18093C10086E0809377
:107E2000C20080E18093C4008EE0C9D0259A86E02C
:107E300020E33CEF91E0309385002093840096BBD3
:107E4000B09BFECF1D9AA8958150A9F7CC24DD24C4
:107E500088248394B5E0AB2EA1E19A2EF3E0BF2EE7
:107E6000A2D0813461F49FD0082FAFD0023811F036
:107E7000013811F484E001C083E08DD089C08234E0
:107E800011F484E103C0853419F485E0A6D080C0E4
:107E9000853579F488D0E82EFF2485D0082F10E0AE
:107EA000102F00270E291F29000F111F8ED06801E7
:107EB0006FC0863521F484E090D080E0DECF843638
:107EC00009F040C070D06FD0082F6DD080E0C81688
:107ED00080E7D80618F4F601B7BEE895C0E0D1E017
:107EE00062D089930C17E1F7F0E0CF16F0E7DF06D8
:107EF00018F0F601B7BEE89568D007B600FCFDCFD4
:107F0000A601A0E0B1E02C9130E011968C91119780
:107F100090E0982F8827822B932B1296FA010C0160
:107F200087BEE89511244E5F5F4FF1E0A038BF0790
:107F300051F7F601A7BEE89507B600FCFDCF97BE46
:107F4000E89526C08437B1F42ED02DD0F82E2BD052
:107F50003CD0F601EF2C8F010F5F1F4F84911BD097
:107F6000EA94F801C1F70894C11CD11CFA94CF0C13
:107F7000D11C0EC0853739F428D08EE10CD085E9AC
:107F80000AD08FE07ACF813511F488E018D01DD067
:107F900080E101D065CF982F8091C00085FFFCCF94
:107FA0009093C60008958091C00087FFFCCF809118
:107FB000C00084FD01C0A8958091C6000895E0E648
:107FC000F0E098E1908380830895EDDF803219F02E
:107FD00088E0F5DFFFCF84E1DECF1F93182FE3DFCA
:107FE0001150E9F7F2DF1F91089580E0E8DFEE27F6
:047FF000FF270994CA
:027FFE00040479
:00000001FF
